S0190000506F73746C61626F7261746F72696F5F342E7372656334
S11300000C9434000C9451000C9451000C94510045
S11300100C94B1000C9451000C9451000C945100B8
S11300200C9451000C9451000C9451000C94510008
S11300300C9451000C9451000C9451000C945100F8
S11300400C9423010C9451000C9451000C94510015
S11300500C9451000C94E6000C9451000C94510043
S11300600C9451000C94510011241FBECFEFD8E022
S1130070DEBFCDBF11E0A0E0B1E0E2EBF2E002C0F0
S113008005900D92A031B107D9F721E0A0E1B1E0CC
S113009001C01D92A631B207E1F70E94AE000C9494
S11300A057010C940000E8E6F0E0808182608083D0
S11300B0ECE6F0E0808184608083808188608083C6
S11300C0089514BC85B5826085BD82E386BD81E058
S11300D080936E000895ECE7F0E0108280818064E4
S11300E0808380818F778083808180628083808118
S11300F086608083EAE7F0E01082808183608083F9
S11301008081886080838081806880830895F894EA
S1130110E1E6F0E080E8808384E080830E9461006F
S11301208FEF84B915B88AB91BB887B1837F87B9B3
S113013088B18C6088B987B1836387B988B18F7CB3
S113014088B91092C1000E9453000E946B00EAE734
S1130150F0E0808180648083789408950E94870011
S1130160FFCF1F920F920FB60F9211248F9386B177
S113017082FD06C0809115018F5F8093150107C031
S113018083FD05C0809115018150809315018091F4
S1130190150185B98091150186FF04C088B181607D
S11301A088B903C088B18E7F88B9809115018823EE
S11301B024F488B1826088B903C088B18D7F88B97E
S11301C08F910F900FBE0F901F9018951F920F9252
S11301D00FB60F9211248F939F93AF93BF93EF9316
S11301E0FF9380917900A82FAF70A0931401E82F9A
S11301F0E295EF70E0931301B0E0A050BF4F9C91E3
S113020090931101F0E0E050FF4F90819093120120
S113021090911501981720F48BB180688BB903C0B5
S11302208BB18F778BB9EAE7F0E0808180648083BB
S1130230FF91EF91BF91AF919F918F910F900FBE5E
S11302400F901F9018951F920F920FB60F921124C2
S11302508F939F9382E386BD88B18F7C88B9809108
S113026010018F5F8170809310018BB180788BB9FE
S113027080911001882319F0813051F011C09BB195
S113028080911201892B8BB988B1806188B908C02B
S11302909BB180911101892B8BB988B1806288B997
S11302A09F918F910F900FBE0F901F901895F89407
S10502B0FFCF7A
S11302B23F065B4F666D7D077F67777F395E797195
S9030000FC
