:100000000C9434000C9451000C9451000C94510049
:100010000C94D9000C9451000C9451000C94510094
:100020000C9451000C9451000C9451000C9451000C
:100030000C9451000C9451000C9451000C945100FC
:100040000C9425010C9451000C9451000C94510017
:100050000C9451000C94F5000C9451000C94510038
:100060000C9451000C94510011241FBECFEFD8E026
:10007000DEBFCDBF11E0A0E0B1E0E6EBF2E002C0F0
:1000800005900D92A031B107D9F721E0A0E1B1E0D0
:1000900001C01D92A631B207E1F70E94BC000C948A
:1000A00059010C94000080911501843021F48BB12A
:1000B00080688BB908958BB18F778BB90895E8E686
:1000C000F0E0808182608083ECE6F0E080818460F3
:1000D0008083808188608083089514BC85B58360A7
:1000E00085BD80EF86BD81E080936E000895ECE7CA
:1000F000F0E0108280818064808380818F778083AC
:10010000808180628083808186608083EAE7F0E07E
:100110001082808183608083808188608083808179
:10012000806880830895F894E1E6F0E080E88083B9
:1001300084E080830E946D008FEF84B915B88AB97E
:100140001BB887B1837F87B988B18C6088B987B1C4
:10015000836387B988B18F6E88B91092C1000E94FD
:100160005F000E947700EAE7F0E08081806480838E
:100170000E945300789408950E9493008091150185
:1001800085B98091150186FF04C088B1816088B966
:1001900003C088B18E7F88B98091150188231CF433
:1001A00088B1826088B98091150188B18D7F88B946
:1001B000E5CF1F920F920FB60F9211248F9386B145
:1001C00082FD06C0809115018F5F8093150107C0E5
:1001D00083FD05C0809115018150809315018F9199
:1001E0000F900FBE0F901F9018951F920F920FB691
:1001F0000F9211248F93AF93BF93EF93FF93E9E78F
:10020000F0E0A081AF70A0931401E081E295EF705F
:10021000E0931301B0E0A050BF4F8C918093110187
:10022000F0E0E050FF4F808180931201EAE7F0E0B8
:10023000808180648083FF91EF91BF91AF918F9116
:100240000F900FBE0F901F9018951F920F920FB630
:100250000F9211248F939F9388B18F7C88B98091DE
:1002600010018F5F80931001823079F08330C1F0EC
:100270008130C1F48BB1909112019F778078892BE6
:100280008BB988B1806188B90DC08BB19091110193
:100290009F778078892B8BB988B1806288B902C03A
:1002A000109210019F918F910F900FBE0F901F9091
:0602B0001895F894FFCF41
:1002B6003F065B4F666D7D077F67777F395E797195
:00000001FF
