:100000000C9434000C9446000C9446000C9446006A
:100010000C9468000C9446000C9446000C94460026
:100020000C9446000C9446000C9446000C94460038
:100030000C9446000C9446000C9446000C94460028
:100040000C9446000C9446000C9446000C94460018
:100050000C9446000C9446000C9446000C94460008
:100060000C9446000C94460011241FBECFEFD8E03C
:10007000DEBFCDBF21E0A0E0B1E001C01D92A13004
:10008000B207E1F70E9462000C947A000C94000021
:10009000E8E6F0E0808182608083ECE6F0E0808139
:1000A000846080838081886080830895F8948FEFD6
:1000B00084B985B917B888B18C6088B90E944800A6
:1000C000789408950E9456008091000185B9FCCF74
:1000D0001F920F920FB60F9211248F9386B18091C9
:1000E00000018F5F809300018F910F900FBE0F90E2
:0800F0001F901895F894FFCF52
:00000001FF
